S01E000075736172745F7472616E736D69745F726563656976652E73726563C4
S113000012C024C023C022C021C020C01FC01EC0F3
S11300101DC01CC01BC02EC019C018C017C016C0FC
S113002015C014C013C011241FBECFE5D4E0DEBF39
S1130030CDBF10E0A0E6B0E0E6EDF0E002C0059030
S11300400D92AA36B107D9F713D043C0D9CF8FEF99
S113005084BB81B3806481BB08958AB180698AB905
S113006080B5866880BD83E389B97894F0DF08950C
S1130070F4DFFFCF1F920F920FB60F9211248F93CC
S11300809F93EF93FF939CB1EDEC9E9FE12D112480
S1130090E695E695E695EE0F8E2F880F880FE80F0C
S11300A09E1BE92FF0E0E05AFF4F808185BB86FF5D
S11300B004C082B3806482BB03C082B38F7B82BBE3
S11300C0FF91EF919F918F910F900FBE0F901F9012
S10900D01895F894FFCF1F
S10D00D6C0F9A4B0999282F880905A
S9030000FC
